{
  "contractName": "Sample",
  "abi": [
    {
      "constant": true,
      "inputs": [
        {
          "internalType": "uint256",
          "name": "",
          "type": "uint256"
        }
      ],
      "name": "employees",
      "outputs": [
        {
          "internalType": "uint256",
          "name": "empid",
          "type": "uint256"
        },
        {
          "internalType": "uint256",
          "name": "salary",
          "type": "uint256"
        },
        {
          "internalType": "string",
          "name": "name",
          "type": "string"
        }
      ],
      "payable": false,
      "stateMutability": "view",
      "type": "function"
    },
    {
      "constant": true,
      "inputs": [],
      "name": "str",
      "outputs": [
        {
          "internalType": "string",
          "name": "",
          "type": "string"
        }
      ],
      "payable": false,
      "stateMutability": "view",
      "type": "function"
    },
    {
      "constant": true,
      "inputs": [],
      "name": "totalEmployees",
      "outputs": [
        {
          "internalType": "uint256",
          "name": "",
          "type": "uint256"
        }
      ],
      "payable": false,
      "stateMutability": "view",
      "type": "function"
    },
    {
      "constant": false,
      "inputs": [
        {
          "internalType": "string",
          "name": "_a",
          "type": "string"
        }
      ],
      "name": "saveStr",
      "outputs": [],
      "payable": false,
      "stateMutability": "nonpayable",
      "type": "function"
    },
    {
      "constant": false,
      "inputs": [
        {
          "internalType": "uint256",
          "name": "_salary",
          "type": "uint256"
        },
        {
          "internalType": "string",
          "name": "_name",
          "type": "string"
        }
      ],
      "name": "addEmployee",
      "outputs": [],
      "payable": false,
      "stateMutability": "nonpayable",
      "type": "function"
    }
  ],
  "bytecode": "0x60806040526040518060200160405280600081525060009080519060200190610029929190610041565b50600060015534801561003b57600080fd5b506100e6565b828054600181600116156101000203166002900490600052602060002090601f016020900481019282601f1061008257805160ff19168380011785556100b0565b828001600101855582156100b0579182015b828111156100af578251825591602001919060010190610094565b5b5090506100bd91906100c1565b5090565b6100e391905b808211156100df5760008160009055506001016100c7565b5090565b90565b610688806100f56000396000f3fe608060405234801561001057600080fd5b50600436106100575760003560e01c8063194287e51461005c5780634739326b1461011757806352b9b973146101cc578063c15bae84146101ea578063d5063e041461026d575b600080fd5b6101156004803603602081101561007257600080fd5b810190808035906020019064010000000081111561008f57600080fd5b8201836020820111156100a157600080fd5b803590602001918460018302840111640100000000831117156100c357600080fd5b91908080601f016020809104026020016040519081016040528093929190818152602001838380828437600081840152601f19601f820116905080830192505050505050509192919290505050610332565b005b6101436004803603602081101561012d57600080fd5b810190808035906020019092919050505061034c565b6040518084815260200183815260200180602001828103825283818151815260200191508051906020019080838360005b8381101561018f578082015181840152602081019050610174565b50505050905090810190601f1680156101bc5780820380516001836020036101000a031916815260200191505b5094505050505060405180910390f35b6101d461040e565b6040518082815260200191505060405180910390f35b6101f2610414565b6040518080602001828103825283818151815260200191508051906020019080838360005b83811015610232578082015181840152602081019050610217565b50505050905090810190601f16801561025f5780820380516001836020036101000a031916815260200191505b509250505060405180910390f35b6103306004803603604081101561028357600080fd5b8101908080359060200190929190803590602001906401000000008111156102aa57600080fd5b8201836020820111156102bc57600080fd5b803590602001918460018302840111640100000000831117156102de57600080fd5b91908080601f016020809104026020016040519081016040528093929190818152602001838380828437600081840152601f19601f8201169050808301925050505050505091929192905050506104b2565b005b806000908051906020019061034892919061052e565b5050565b6002602052806000526040600020600091509050806000015490806001015490806002018054600181600116156101000203166002900480601f0160208091040260200160405190810160405280929190818152602001828054600181600116156101000203166002900480156104045780601f106103d957610100808354040283529160200191610404565b820191906000526020600020905b8154815290600101906020018083116103e757829003601f168201915b5050505050905083565b60015481565b60008054600181600116156101000203166002900480601f0160208091040260200160405190810160405280929190818152602001828054600181600116156101000203166002900480156104aa5780601f1061047f576101008083540402835291602001916104aa565b820191906000526020600020905b81548152906001019060200180831161048d57829003601f168201915b505050505081565b6001600081548092919060010191905055506040518060600160405280600154815260200183815260200182815250600260006001548152602001908152602001600020600082015181600001556020820151816001015560408201518160020190805190602001906105269291906105ae565b509050505050565b828054600181600116156101000203166002900490600052602060002090601f016020900481019282601f1061056f57805160ff191683800117855561059d565b8280016001018555821561059d579182015b8281111561059c578251825591602001919060010190610581565b5b5090506105aa919061062e565b5090565b828054600181600116156101000203166002900490600052602060002090601f016020900481019282601f106105ef57805160ff191683800117855561061d565b8280016001018555821561061d579182015b8281111561061c578251825591602001919060010190610601565b5b50905061062a919061062e565b5090565b61065091905b8082111561064c576000816000905550600101610634565b5090565b9056fea265627a7a723158204151273e9afd9bf6a2fff740030f83c55198347a0b805797685a8f008e60c1b264736f6c63430005100032",
  "source": "// SPDX-License-Identifier: MIT\r\npragma solidity >=0.4.22 <0.8.0;\r\n\r\ncontract Sample { \r\n    string public  str=\"\";\r\n    uint public totalEmployees=0;\r\n    struct employee{\r\n      uint empid;\r\n      uint salary;\r\n      string name;\r\n    }\r\n    mapping (uint=>employee) public employees;\r\n    function saveStr(string memory _a) public{\r\n      str=_a;  \r\n    }\r\n    function addEmployee(uint _salary,string memory _name) public{\r\n      totalEmployees++;\r\n      employees[totalEmployees]=employee(totalEmployees,_salary,_name);\r\n    }\r\n  \r\n}",
  "sourcePath": "D:/BLOCKCHAIN/CODE/contracts/Sample.sol",
  "compiler": {
    "name": "solc",
    "version": "0.5.16+commit.9c3226ce.Emscripten.clang"
  },
  "schemaVersion": "3.4.0",
  "updatedAt": "2021-05-01T12:01:01.221Z",
  "networkType": "ethereum",
  "devdoc": {
    "methods": {}
  },
  "userdoc": {
    "methods": {}
  }
}